MPASM  5.48                   SUBRUTINA01.ASM   12-17-2020  7:56:41         PAGE  1


LOC  OBJECT CODE     LINE SOURCE TEXT
  VALUE

Warning[205]: Found directive in column 1. (LIST)
                      00001 LIST P = 16F84A
Warning[205]: Found directive in column 1. (INCLUDE)
                      00002 INCLUDE <P16F84A.INC>
                      00001         LIST
                      00002 
                      00003 ;==========================================================================
                      00004 ;  MPASM PIC16F84A processor include
                      00005 ; 
                      00006 ;  (c) Copyright 1999-2012 Microchip Technology, All rights reserved
                      00007 ;==========================================================================
                      00008 
                      00208         LIST
                      00003 
Warning[205]: Found directive in column 1. (CBLOCK)
                      00004 CBLOCK 0x0C
Warning[205]: Found directive in column 1. (ENDC)
                      00005 ENDC
                      00006 
  0000007C            00007 NUMERO EQU d'124'
                      00008 
0000                  00009         ORG 0
                      00010 
0000                  00011 Inicio
0000   1683           00012         bsf STATUS,RP0
0001   0186           00013         clrf PORTB
0002   1283           00014         bcf STATUS,RP0
0003                  00015 Principal
0003   307C           00016         movlw NUMERO
0004   2007           00017         call CON_BCD
0005   0086           00018         movwf PORTB
0006   2806           00019         goto $
                      00020         
                      00021         CBLOCK
  0000000C            00022         Centenas
  0000000D            00023         Decenas
  0000000E            00024         Unidades
                      00025         ENDC
                      00026 
0007                  00027 CON_BCD
0007   018C           00028         clrf Centenas
0008   018D           00029         clrf Decenas
0009   008E           00030         movwf Unidades
000A                  00031 Resta_Unidades
000A   300A           00032         movlw .10
000B   020E           00033         subwf Unidades,W
000C   1C03           00034         btfss STATUS,C
000D   2817           00035         goto BIN_BCD_Fin
000E                  00036 Incrementar_Decenas
000E   008E           00037         movwf Unidades
000F   0A8D           00038         incf Decenas,F
0010   300A           00039         movlw .10
0011   020D           00040         subwf Decenas,W
MPASM  5.48                   SUBRUTINA01.ASM   12-17-2020  7:56:41         PAGE  2


LOC  OBJECT CODE     LINE SOURCE TEXT
  VALUE

0012   1C03           00041         btfss STATUS,C
0013   280A           00042         goto Resta_Unidades
0014                  00043 Incrementar_Centenas
0014   018D           00044         clrf Decenas
0015   0A8C           00045         incf Centenas,F
0016   280A           00046         goto Resta_Unidades
0017                  00047 BIN_BCD_Fin
0017   0E0D           00048         swapf   Decenas,W
0018   070E           00049         addwf   Unidades,W
0019   0008           00050         return
                      00051         
                      00052         END
MPASM  5.48                   SUBRUTINA01.ASM   12-17-2020  7:56:41         PAGE  3


SYMBOL TABLE
  LABEL                             VALUE 

BIN_BCD_Fin                       00000017
C                                 00000000
CON_BCD                           00000007
Centenas                          0000000C
DC                                00000001
Decenas                           0000000D
EEADR                             00000009
EECON1                            00000088
EECON2                            00000089
EEDATA                            00000008
EEIE                              00000006
EEIF                              00000004
F                                 00000001
FSR                               00000004
GIE                               00000007
INDF                              00000000
INTCON                            0000000B
INTE                              00000004
INTEDG                            00000006
INTF                              00000001
IRP                               00000007
Incrementar_Centenas              00000014
Incrementar_Decenas               0000000E
Inicio                            00000000
NOT_PD                            00000003
NOT_RBPU                          00000007
NOT_TO                            00000004
NUMERO                            0000007C
OPTION_REG                        00000081
PCL                               00000002
PCLATH                            0000000A
PORTA                             00000005
PORTB                             00000006
PS0                               00000000
PS1                               00000001
PS2                               00000002
PSA                               00000003
Principal                         00000003
RA0                               00000000
RA1                               00000001
RA2                               00000002
RA3                               00000003
RA4                               00000004
RB0                               00000000
RB1                               00000001
RB2                               00000002
RB3                               00000003
RB4                               00000004
RB5                               00000005
RB6                               00000006
RB7                               00000007
RBIE                              00000003
RBIF                              00000000
MPASM  5.48                   SUBRUTINA01.ASM   12-17-2020  7:56:41         PAGE  4


SYMBOL TABLE
  LABEL                             VALUE 

RD                                00000000
RP0                               00000005
RP1                               00000006
Resta_Unidades                    0000000A
STATUS                            00000003
T0CS                              00000005
T0IE                              00000005
T0IF                              00000002
T0SE                              00000004
TMR0                              00000001
TMR0IE                            00000005
TMR0IF                            00000002
TRISA                             00000085
TRISA0                            00000000
TRISA1                            00000001
TRISA2                            00000002
TRISA3                            00000003
TRISA4                            00000004
TRISB                             00000086
TRISB0                            00000000
TRISB1                            00000001
TRISB2                            00000002
TRISB3                            00000003
TRISB4                            00000004
TRISB5                            00000005
TRISB6                            00000006
TRISB7                            00000007
Unidades                          0000000E
W                                 00000000
WR                                00000001
WREN                              00000002
WRERR                             00000003
Z                                 00000002
_CONFIG                           00002007
_CP_OFF                           00003FFF
_CP_ON                            0000000F
_DEVID1                           00002006
_FOSC_EXTRC                       00003FFF
_FOSC_HS                          00003FFE
_FOSC_LP                          00003FFC
_FOSC_XT                          00003FFD
_HS_OSC                           00003FFE
_IDLOC0                           00002000
_IDLOC1                           00002001
_IDLOC2                           00002002
_IDLOC3                           00002003
_LP_OSC                           00003FFC
_PWRTE_OFF                        00003FFF
_PWRTE_ON                         00003FF7
_RC_OSC                           00003FFF
_WDTE_OFF                         00003FFB
_WDTE_ON                          00003FFF
_WDT_OFF                          00003FFB
MPASM  5.48                   SUBRUTINA01.ASM   12-17-2020  7:56:41         PAGE  5


SYMBOL TABLE
  LABEL                             VALUE 

_WDT_ON                           00003FFF
_XT_OSC                           00003FFD
__16F84A                          00000001


MEMORY USAGE MAP ('X' = Used,  '-' = Unused)

0000 : XXXXXXXXXXXXXXXX XXXXXXXXXX------ ---------------- ----------------

All other memory blocks unused.

Program Memory Words Used:    26
Program Memory Words Free:   998


Errors   :     0
Warnings :     4 reported,     0 suppressed
Messages :     0 reported,     0 suppressed

