MPASM  5.48                       DISPLAY.ASM   1-7-2021  7:59:22         PAGE  1


LOC  OBJECT CODE     LINE SOURCE TEXT
  VALUE

Warning[205]: Found directive in column 1. (LIST)
                      00001 LIST P=16F84A
Warning[205]: Found directive in column 1. (INCLUDE)
                      00002 INCLUDE <P16F84A.INC>
                      00001         LIST
                      00002 
                      00003 ;==========================================================================
                      00004 ;  MPASM PIC16F84A processor include
                      00005 ; 
                      00006 ;  (c) Copyright 1999-2012 Microchip Technology, All rights reserved
                      00007 ;==========================================================================
                      00008 
                      00208         LIST
                      00003         
0000                  00004         ORG 0
0000                  00005 Inicio 
0000   1683           00006         bsf STATUS,RP0
0001   0186           00007         clrf PORTB
0002   301F           00008         movlw b'00011111'
0003   0085           00009         movwf PORTA
0004   1283           00010         bcf STATUS,RP0
0005                  00011 Principal
0005   0805           00012         movf PORTA,W
0006   390F           00013         andlw b'00001111'
0007   200A           00014         call display
0008   0086           00015         movwf PORTB
0009   2805           00016         goto Principal
                      00017 
                      00018 ;Subrutina
000A                  00019 display
000A   0782           00020         addwf PCL,F
000B                  00021 Tabla
000B   343F           00022         retlw 3Fh
000C   3406           00023         retlw 06h
000D   345B           00024         retlw 5Bh
000E   344F           00025         retlw 4Fh
000F   3466           00026         retlw 66h
0010   346D           00027         retlw 6Dh
0011   347D           00028         retlw 7Dh
0012   3407           00029         retlw 07h
0013   347F           00030         retlw 7Fh
0014   3467           00031         retlw 67h
0015   3477           00032         retlw 77h
0016   347C           00033         retlw 7Ch
0017   3439           00034         retlw 39h
0018   345E           00035         retlw 5Eh
0019   3479           00036         retlw 79h
001A   3471           00037         retlw 71h
                      00038 
                      00039         END
MPASM  5.48                       DISPLAY.ASM   1-7-2021  7:59:22         PAGE  2


SYMBOL TABLE
  LABEL                             VALUE 

C                                 00000000
DC                                00000001
EEADR                             00000009
EECON1                            00000088
EECON2                            00000089
EEDATA                            00000008
EEIE                              00000006
EEIF                              00000004
F                                 00000001
FSR                               00000004
GIE                               00000007
INDF                              00000000
INTCON                            0000000B
INTE                              00000004
INTEDG                            00000006
INTF                              00000001
IRP                               00000007
Inicio                            00000000
NOT_PD                            00000003
NOT_RBPU                          00000007
NOT_TO                            00000004
OPTION_REG                        00000081
PCL                               00000002
PCLATH                            0000000A
PORTA                             00000005
PORTB                             00000006
PS0                               00000000
PS1                               00000001
PS2                               00000002
PSA                               00000003
Principal                         00000005
RA0                               00000000
RA1                               00000001
RA2                               00000002
RA3                               00000003
RA4                               00000004
RB0                               00000000
RB1                               00000001
RB2                               00000002
RB3                               00000003
RB4                               00000004
RB5                               00000005
RB6                               00000006
RB7                               00000007
RBIE                              00000003
RBIF                              00000000
RD                                00000000
RP0                               00000005
RP1                               00000006
STATUS                            00000003
T0CS                              00000005
T0IE                              00000005
T0IF                              00000002
MPASM  5.48                       DISPLAY.ASM   1-7-2021  7:59:22         PAGE  3


SYMBOL TABLE
  LABEL                             VALUE 

T0SE                              00000004
TMR0                              00000001
TMR0IE                            00000005
TMR0IF                            00000002
TRISA                             00000085
TRISA0                            00000000
TRISA1                            00000001
TRISA2                            00000002
TRISA3                            00000003
TRISA4                            00000004
TRISB                             00000086
TRISB0                            00000000
TRISB1                            00000001
TRISB2                            00000002
TRISB3                            00000003
TRISB4                            00000004
TRISB5                            00000005
TRISB6                            00000006
TRISB7                            00000007
Tabla                             0000000B
W                                 00000000
WR                                00000001
WREN                              00000002
WRERR                             00000003
Z                                 00000002
_CONFIG                           00002007
_CP_OFF                           00003FFF
_CP_ON                            0000000F
_DEVID1                           00002006
_FOSC_EXTRC                       00003FFF
_FOSC_HS                          00003FFE
_FOSC_LP                          00003FFC
_FOSC_XT                          00003FFD
_HS_OSC                           00003FFE
_IDLOC0                           00002000
_IDLOC1                           00002001
_IDLOC2                           00002002
_IDLOC3                           00002003
_LP_OSC                           00003FFC
_PWRTE_OFF                        00003FFF
_PWRTE_ON                         00003FF7
_RC_OSC                           00003FFF
_WDTE_OFF                         00003FFB
_WDTE_ON                          00003FFF
_WDT_OFF                          00003FFB
_WDT_ON                           00003FFF
_XT_OSC                           00003FFD
__16F84A                          00000001
display                           0000000A
MPASM  5.48                       DISPLAY.ASM   1-7-2021  7:59:22         PAGE  4


MEMORY USAGE MAP ('X' = Used,  '-' = Unused)


0000 : XXXXXXXXXXXXXXXX XXXXXXXXXXX----- ---------------- ----------------

All other memory blocks unused.

Program Memory Words Used:    27
Program Memory Words Free:   997


Errors   :     0
Warnings :     2 reported,     0 suppressed
Messages :     0 reported,     0 suppressed

