:020000040000FA
:1000000083168601831206148610061147200610F7
:10001000861406114720061086100615472003286F
:1000200000000000000000000000000008000000C8
:10003000A43023280000403023281F30232800004C
:100040000E30232805308D008D0B24280800C83081
:1000500036286430362832303628143036280A30B4
:100060003628053036280230362801308E00F93027
:100070008D0000008D0B39288E0B37280800C83002
:100080004A2864304A2832304A2814304A280A3034
:100090004A2805308F0064308E00F9308D00000052
:0E00A0008D0B4F288E0B4D288F0B4B28080020
:00000001FF
