MPASM  5.48                      SALTO_3P.ASM   12-5-2020  12:25:30         PAGE  1


LOC  OBJECT CODE     LINE SOURCE TEXT
  VALUE

                      00001 ;Comparar PORTA con un NUMERO 
                      00002 ;PORTA > NUMERO -- C=1 Z=0 prende los pares
                      00003 ;PORTA < NUMERO -- C=0 Z=0 prende Nibble alto
                      00004 ;PORTA = NUMERO -- C=1 Z=1 prende todos los leds
                      00005 
                      00006         LIST P=16F84A
                      00007         INCLUDE <P16F84A.INC>
                      00001         LIST
                      00002 
                      00003 ;==========================================================================
                      00004 ;  MPASM PIC16F84A processor include
                      00005 ; 
                      00006 ;  (c) Copyright 1999-2012 Microchip Technology, All rights reserved
                      00007 ;==========================================================================
                      00008 
                      00208         LIST
                      00008 
  0000000A            00009 NUMERO EQU d'10'
0000                  00010         ORG 0
0000                  00011 Inicio
0000   1683           00012         bsf STATUS,RP0
0001   0186           00013         clrf PORTB
0002   301F           00014         movlw b'00011111'
0003   0085           00015         movwf PORTA
0004   1283           00016         bcf STATUS,RP0
0005                  00017 Principal
0005   300A           00018         movlw NUMERO
0006   0205           00019         subwf PORTA,W           ;Resultado de la resta afecta banderas
0007   30F0           00020         movlw b'11110000'       ;Suponiendo que PORTA es menor que NUMERO
                      00021         ;si, si C=0 Y Z=0
0008   1C03           00022         btfss STATUS,C
                      00023         ;termine el programa y muestre en PORTB
0009   280E           00024         goto Salida
000A   30FF           00025         movlw b'11111111'       ;Son iguales
000B   1903           00026         btfsc STATUS,Z
000C   280E           00027         goto Salida             ;Si Z=1 ejecuta a salida
000D   3055           00028         movlw b'01010101'
000E                  00029 Salida
000E   0086           00030         movwf PORTB
000F   2805           00031         goto Principal
                      00032         END
MPASM  5.48                      SALTO_3P.ASM   12-5-2020  12:25:30         PAGE  2


SYMBOL TABLE
  LABEL                             VALUE 

C                                 00000000
DC                                00000001
EEADR                             00000009
EECON1                            00000088
EECON2                            00000089
EEDATA                            00000008
EEIE                              00000006
EEIF                              00000004
F                                 00000001
FSR                               00000004
GIE                               00000007
INDF                              00000000
INTCON                            0000000B
INTE                              00000004
INTEDG                            00000006
INTF                              00000001
IRP                               00000007
Inicio                            00000000
NOT_PD                            00000003
NOT_RBPU                          00000007
NOT_TO                            00000004
NUMERO                            0000000A
OPTION_REG                        00000081
PCL                               00000002
PCLATH                            0000000A
PORTA                             00000005
PORTB                             00000006
PS0                               00000000
PS1                               00000001
PS2                               00000002
PSA                               00000003
Principal                         00000005
RA0                               00000000
RA1                               00000001
RA2                               00000002
RA3                               00000003
RA4                               00000004
RB0                               00000000
RB1                               00000001
RB2                               00000002
RB3                               00000003
RB4                               00000004
RB5                               00000005
RB6                               00000006
RB7                               00000007
RBIE                              00000003
RBIF                              00000000
RD                                00000000
RP0                               00000005
RP1                               00000006
STATUS                            00000003
Salida                            0000000E
T0CS                              00000005
MPASM  5.48                      SALTO_3P.ASM   12-5-2020  12:25:30         PAGE  3


SYMBOL TABLE
  LABEL                             VALUE 

T0IE                              00000005
T0IF                              00000002
T0SE                              00000004
TMR0                              00000001
TMR0IE                            00000005
TMR0IF                            00000002
TRISA                             00000085
TRISA0                            00000000
TRISA1                            00000001
TRISA2                            00000002
TRISA3                            00000003
TRISA4                            00000004
TRISB                             00000086
TRISB0                            00000000
TRISB1                            00000001
TRISB2                            00000002
TRISB3                            00000003
TRISB4                            00000004
TRISB5                            00000005
TRISB6                            00000006
TRISB7                            00000007
W                                 00000000
WR                                00000001
WREN                              00000002
WRERR                             00000003
Z                                 00000002
_CONFIG                           00002007
_CP_OFF                           00003FFF
_CP_ON                            0000000F
_DEVID1                           00002006
_FOSC_EXTRC                       00003FFF
_FOSC_HS                          00003FFE
_FOSC_LP                          00003FFC
_FOSC_XT                          00003FFD
_HS_OSC                           00003FFE
_IDLOC0                           00002000
_IDLOC1                           00002001
_IDLOC2                           00002002
_IDLOC3                           00002003
_LP_OSC                           00003FFC
_PWRTE_OFF                        00003FFF
_PWRTE_ON                         00003FF7
_RC_OSC                           00003FFF
_WDTE_OFF                         00003FFB
_WDTE_ON                          00003FFF
_WDT_OFF                          00003FFB
_WDT_ON                           00003FFF
_XT_OSC                           00003FFD
__16F84A                          00000001
MPASM  5.48                      SALTO_3P.ASM   12-5-2020  12:25:30         PAGE  4


MEMORY USAGE MAP ('X' = Used,  '-' = Unused)


0000 : XXXXXXXXXXXXXXXX ---------------- ---------------- ----------------

All other memory blocks unused.

Program Memory Words Used:    16
Program Memory Words Free:  1008


Errors   :     0
Warnings :     0 reported,     0 suppressed
Messages :     0 reported,     0 suppressed

