MPASM  5.48                     INDEXADO1.ASM   12-9-2020  8:05:15         PAGE  1


LOC  OBJECT CODE     LINE SOURCE TEXT
  VALUE

                      00001 ;Declara tabla de verdad con 3 entradas y 6 salidas
                      00002 ;Salto indexado 
                      00003 
                      00004 ;PCL - Registro base + Registro indice (w) 
                      00005 ;       0   0   0   |   0    0    1    0    1    0      ; (Configuración 0).
                      00006 ;       0   0   1   |   0    0    1    0    0    1      ; (Configuración 1).
                      00007 ;       0   1   0   |   1    0    0    0    1    1      ; (Configuración 2).
                      00008 ;       0   1   1   |   0    0    1    1    1    1      ; (Configuración 3).
                      00009 ;       1   0   0   |   1    0    0    0    0    0      ; (Configuración 4).
                      00010 ;       1   0   1   |   0    0    0    1    1    1      ; (Configuración 5).
                      00011 ;       1   1   0   |   0    1    0    1    1    1      ; (Configuración 6).
                      00012 ;       1   1   1   |   1    1    1    1    1    1      ; (Configuración 7).
                      00013 
Warning[205]: Found directive in column 1. (LIST)
                      00014 LIST P = 16F84A
Warning[205]: Found directive in column 1. (INCLUDE)
                      00015 INCLUDE<P16F84A.INC>
                      00001         LIST
                      00002 
                      00003 ;==========================================================================
                      00004 ;  MPASM PIC16F84A processor include
                      00005 ; 
                      00006 ;  (c) Copyright 1999-2012 Microchip Technology, All rights reserved
                      00007 ;==========================================================================
                      00008 
                      00208         LIST
                      00016 
0000                  00017         ORG 0
                      00018 
0000                  00019 Inicio
0000   1683           00020         bsf STATUS,RP0
0001   0186           00021         clrf PORTB
0002   301F           00022         movlw b'00011111'
0003   0085           00023         movwf PORTA
0004   1283           00024         bcf STATUS,RP0
0005                  00025 Principal
0005   0805           00026         movf PORTA,W
0006   3907           00027         andlw b'00000111'
0007   0782           00028         addwf PCL,F
0008                  00029 Tabla
0008   2810           00030         goto Configuracion0
0009   2812           00031         goto Configuracion1
000A   2814           00032         goto Configuracion2
000B   2816           00033         goto Configuracion3
000C   2818           00034         goto Configuracion4
000D   281A           00035         goto Configuracion5
000E   281C           00036         goto Configuracion6
000F   281E           00037         goto Configuracion7
0010                  00038 Configuracion0
0010   300A           00039         movlw b'00001010'
0011   2820           00040         goto Salida
0012                  00041 Configuracion1
0012   3009           00042         movlw b'00001001'
MPASM  5.48                     INDEXADO1.ASM   12-9-2020  8:05:15         PAGE  2


LOC  OBJECT CODE     LINE SOURCE TEXT
  VALUE

0013   2820           00043         goto Salida
0014                  00044 Configuracion2
0014   3023           00045         movlw b'00100011'
0015   2820           00046         goto Salida
0016                  00047 Configuracion3
0016   300F           00048         movlw b'00001111'
0017   2820           00049         goto Salida
0018                  00050 Configuracion4
0018   3020           00051         movlw b'00100000'
0019   2820           00052         goto Salida
001A                  00053 Configuracion5
001A   3007           00054         movlw b'00000111'
001B   2820           00055         goto Salida
001C                  00056 Configuracion6
001C   3017           00057         movlw b'00010111'
001D   2820           00058         goto Salida
001E                  00059 Configuracion7
001E   303F           00060         movlw b'00111111'
001F   2820           00061         goto Salida
0020                  00062 Salida
0020   0086           00063         movwf PORTB
0021   2805           00064         goto Principal
                      00065         
                      00066         END
MPASM  5.48                     INDEXADO1.ASM   12-9-2020  8:05:15         PAGE  3


SYMBOL TABLE
  LABEL                             VALUE 

C                                 00000000
Configuracion0                    00000010
Configuracion1                    00000012
Configuracion2                    00000014
Configuracion3                    00000016
Configuracion4                    00000018
Configuracion5                    0000001A
Configuracion6                    0000001C
Configuracion7                    0000001E
DC                                00000001
EEADR                             00000009
EECON1                            00000088
EECON2                            00000089
EEDATA                            00000008
EEIE                              00000006
EEIF                              00000004
F                                 00000001
FSR                               00000004
GIE                               00000007
INDF                              00000000
INTCON                            0000000B
INTE                              00000004
INTEDG                            00000006
INTF                              00000001
IRP                               00000007
Inicio                            00000000
NOT_PD                            00000003
NOT_RBPU                          00000007
NOT_TO                            00000004
OPTION_REG                        00000081
PCL                               00000002
PCLATH                            0000000A
PORTA                             00000005
PORTB                             00000006
PS0                               00000000
PS1                               00000001
PS2                               00000002
PSA                               00000003
Principal                         00000005
RA0                               00000000
RA1                               00000001
RA2                               00000002
RA3                               00000003
RA4                               00000004
RB0                               00000000
RB1                               00000001
RB2                               00000002
RB3                               00000003
RB4                               00000004
RB5                               00000005
RB6                               00000006
RB7                               00000007
RBIE                              00000003
MPASM  5.48                     INDEXADO1.ASM   12-9-2020  8:05:15         PAGE  4


SYMBOL TABLE
  LABEL                             VALUE 

RBIF                              00000000
RD                                00000000
RP0                               00000005
RP1                               00000006
STATUS                            00000003
Salida                            00000020
T0CS                              00000005
T0IE                              00000005
T0IF                              00000002
T0SE                              00000004
TMR0                              00000001
TMR0IE                            00000005
TMR0IF                            00000002
TRISA                             00000085
TRISA0                            00000000
TRISA1                            00000001
TRISA2                            00000002
TRISA3                            00000003
TRISA4                            00000004
TRISB                             00000086
TRISB0                            00000000
TRISB1                            00000001
TRISB2                            00000002
TRISB3                            00000003
TRISB4                            00000004
TRISB5                            00000005
TRISB6                            00000006
TRISB7                            00000007
Tabla                             00000008
W                                 00000000
WR                                00000001
WREN                              00000002
WRERR                             00000003
Z                                 00000002
_CONFIG                           00002007
_CP_OFF                           00003FFF
_CP_ON                            0000000F
_DEVID1                           00002006
_FOSC_EXTRC                       00003FFF
_FOSC_HS                          00003FFE
_FOSC_LP                          00003FFC
_FOSC_XT                          00003FFD
_HS_OSC                           00003FFE
_IDLOC0                           00002000
_IDLOC1                           00002001
_IDLOC2                           00002002
_IDLOC3                           00002003
_LP_OSC                           00003FFC
_PWRTE_OFF                        00003FFF
_PWRTE_ON                         00003FF7
_RC_OSC                           00003FFF
_WDTE_OFF                         00003FFB
_WDTE_ON                          00003FFF
MPASM  5.48                     INDEXADO1.ASM   12-9-2020  8:05:15         PAGE  5


SYMBOL TABLE
  LABEL                             VALUE 

_WDT_OFF                          00003FFB
_WDT_ON                           00003FFF
_XT_OSC                           00003FFD
__16F84A                          00000001


MEMORY USAGE MAP ('X' = Used,  '-' = Unused)

0000 : XXXXXXXXXXXXXXXX XXXXXXXXXXXXXXXX XX-------------- ----------------

All other memory blocks unused.

Program Memory Words Used:    34
Program Memory Words Free:   990


Errors   :     0
Warnings :     2 reported,     0 suppressed
Messages :     0 reported,     0 suppressed

