MPASM  5.48                   NIVEL_BOMBA.ASM   12-11-2020  7:40:54         PAGE  1


LOC  OBJECT CODE     LINE SOURCE TEXT
  VALUE

                      00001 ;
                      00002         LIST P = 16F84A
                      00003         INCLUDE<P16F84A.INC>
                      00001         LIST
                      00002 
                      00003 ;==========================================================================
                      00004 ;  MPASM PIC16F84A processor include
                      00005 ; 
                      00006 ;  (c) Copyright 1999-2012 Microchip Technology, All rights reserved
                      00007 ;==========================================================================
                      00008 
                      00208         LIST
                      00004 
0000                  00005         ORG 0
0000                  00006 Inicio
0000   0186           00007         clrf PORTB
0001   1683           00008         bsf STATUS,RP0
0002   0186           00009         clrf PORTB
0003   301F           00010         movlw b'00011111'
0004   0085           00011         movwf PORTA
0005   1283           00012         bcf STATUS,RP0
0006                  00013 Principal
0006   0805           00014         movf PORTA,W
0007   3907           00015         andlw b'00000111'
0008   0782           00016         addwf PCL,F
0009   2811           00017         goto Configuracion0
000A   2813           00018         goto Configuracion1
000B   2815           00019         goto Configuracion2
000C   2817           00020         goto Configuracion3
000D   2819           00021         goto Configuracion4
000E   281B           00022         goto Configuracion5
000F   281D           00023         goto Configuracion6
0010   281F           00024         goto Configuracion7
0011                  00025 Configuracion0
0011   3061           00026         movlw b'01100001'
0012   2821           00027         goto Salida
0013                  00028 Configuracion1
0013   3062           00029         movlw b'01100010'
0014   2821           00030         goto Salida
0015                  00031 Configuracion2
0015   3010           00032         movlw b'00010000'
0016   2821           00033         goto Salida
0017                  00034 Configuracion3
0017   3024           00035         movlw b'00100100'
0018   2821           00036         goto Salida
0019                  00037 Configuracion4
0019   3010           00038         movlw b'00010000'
001A   2821           00039         goto Salida
001B                  00040 Configuracion5
001B   3010           00041         movlw b'00010000'
001C   2821           00042         goto Salida
001D                  00043 Configuracion6
001D   3010           00044         movlw b'00010000'
MPASM  5.48                   NIVEL_BOMBA.ASM   12-11-2020  7:40:54         PAGE  2


LOC  OBJECT CODE     LINE SOURCE TEXT
  VALUE

001E   2821           00045         goto Salida
001F                  00046 Configuracion7
001F   3008           00047         movlw b'00001000'
0020   2821           00048         goto Salida
0021                  00049 Salida
0021   0086           00050         movwf PORTB
0022   2806           00051         goto Principal
                      00052         END
MPASM  5.48                   NIVEL_BOMBA.ASM   12-11-2020  7:40:54         PAGE  3


SYMBOL TABLE
  LABEL                             VALUE 

C                                 00000000
Configuracion0                    00000011
Configuracion1                    00000013
Configuracion2                    00000015
Configuracion3                    00000017
Configuracion4                    00000019
Configuracion5                    0000001B
Configuracion6                    0000001D
Configuracion7                    0000001F
DC                                00000001
EEADR                             00000009
EECON1                            00000088
EECON2                            00000089
EEDATA                            00000008
EEIE                              00000006
EEIF                              00000004
F                                 00000001
FSR                               00000004
GIE                               00000007
INDF                              00000000
INTCON                            0000000B
INTE                              00000004
INTEDG                            00000006
INTF                              00000001
IRP                               00000007
Inicio                            00000000
NOT_PD                            00000003
NOT_RBPU                          00000007
NOT_TO                            00000004
OPTION_REG                        00000081
PCL                               00000002
PCLATH                            0000000A
PORTA                             00000005
PORTB                             00000006
PS0                               00000000
PS1                               00000001
PS2                               00000002
PSA                               00000003
Principal                         00000006
RA0                               00000000
RA1                               00000001
RA2                               00000002
RA3                               00000003
RA4                               00000004
RB0                               00000000
RB1                               00000001
RB2                               00000002
RB3                               00000003
RB4                               00000004
RB5                               00000005
RB6                               00000006
RB7                               00000007
RBIE                              00000003
MPASM  5.48                   NIVEL_BOMBA.ASM   12-11-2020  7:40:54         PAGE  4


SYMBOL TABLE
  LABEL                             VALUE 

RBIF                              00000000
RD                                00000000
RP0                               00000005
RP1                               00000006
STATUS                            00000003
Salida                            00000021
T0CS                              00000005
T0IE                              00000005
T0IF                              00000002
T0SE                              00000004
TMR0                              00000001
TMR0IE                            00000005
TMR0IF                            00000002
TRISA                             00000085
TRISA0                            00000000
TRISA1                            00000001
TRISA2                            00000002
TRISA3                            00000003
TRISA4                            00000004
TRISB                             00000086
TRISB0                            00000000
TRISB1                            00000001
TRISB2                            00000002
TRISB3                            00000003
TRISB4                            00000004
TRISB5                            00000005
TRISB6                            00000006
TRISB7                            00000007
W                                 00000000
WR                                00000001
WREN                              00000002
WRERR                             00000003
Z                                 00000002
_CONFIG                           00002007
_CP_OFF                           00003FFF
_CP_ON                            0000000F
_DEVID1                           00002006
_FOSC_EXTRC                       00003FFF
_FOSC_HS                          00003FFE
_FOSC_LP                          00003FFC
_FOSC_XT                          00003FFD
_HS_OSC                           00003FFE
_IDLOC0                           00002000
_IDLOC1                           00002001
_IDLOC2                           00002002
_IDLOC3                           00002003
_LP_OSC                           00003FFC
_PWRTE_OFF                        00003FFF
_PWRTE_ON                         00003FF7
_RC_OSC                           00003FFF
_WDTE_OFF                         00003FFB
_WDTE_ON                          00003FFF
_WDT_OFF                          00003FFB
MPASM  5.48                   NIVEL_BOMBA.ASM   12-11-2020  7:40:54         PAGE  5


SYMBOL TABLE
  LABEL                             VALUE 

_WDT_ON                           00003FFF
_XT_OSC                           00003FFD
__16F84A                          00000001


MEMORY USAGE MAP ('X' = Used,  '-' = Unused)

0000 : XXXXXXXXXXXXXXXX XXXXXXXXXXXXXXXX XXX------------- ----------------

All other memory blocks unused.

Program Memory Words Used:    35
Program Memory Words Free:   989


Errors   :     0
Warnings :     0 reported,     0 suppressed
Messages :     0 reported,     0 suppressed

