MPASM  5.48                         COVID.ASM   12-16-2020  8:50:06         PAGE  1


LOC  OBJECT CODE     LINE SOURCE TEXT
  VALUE

                      00001         LIST P = 16F84A
                      00002         INCLUDE<P16F84A.INC>
                      00001         LIST
                      00002 
                      00003 ;==========================================================================
                      00004 ;  MPASM PIC16F84A processor include
                      00005 ; 
                      00006 ;  (c) Copyright 1999-2012 Microchip Technology, All rights reserved
                      00007 ;==========================================================================
                      00008 
                      00208         LIST
                      00003 
0000                  00004         ORG 0
0000                  00005 Inicio
0000   0186           00006         clrf PORTB
0001   1683           00007         bsf STATUS,RP0
0002   0186           00008         clrf PORTB
0003   301F           00009         movlw b'00011111'
0004   0085           00010         movwf PORTA
0005   1283           00011         bcf STATUS,RP0
0006                  00012 Principal
0006   0805           00013         movf PORTA,W
0007   390F           00014         andlw b'00001111'
0008   0782           00015         addwf PCL,F
0009   2819           00016         goto Configuracion0
000A   281B           00017         goto Configuracion1
000B   281D           00018         goto Configuracion2
000C   281F           00019         goto Configuracion3
000D   2821           00020         goto Configuracion4
000E   2823           00021         goto Configuracion5
000F   2825           00022         goto Configuracion6
0010   2827           00023         goto Configuracion7
0011   2829           00024         goto Configuracion8
0012   282B           00025         goto Configuracion9
0013   282D           00026         goto Configuracion10
0014   282F           00027         goto Configuracion11
0015   2831           00028         goto Configuracion12
0016   2833           00029         goto Configuracion13
0017   2835           00030         goto Configuracion14
0018   2837           00031         goto Configuracion15
0019                  00032 Configuracion0
0019   3001           00033         movlw b'00000001'
001A   2839           00034         goto Salida
001B                  00035 Configuracion1
001B   3003           00036         movlw b'00000011'
001C   2839           00037         goto Salida
001D                  00038 Configuracion2
001D   3004           00039         movlw b'00000100'
001E   2839           00040         goto Salida
001F                  00041 Configuracion3
001F   303F           00042         movlw b'00111111'
0020   2839           00043         goto Salida
0021                  00044 Configuracion4
MPASM  5.48                         COVID.ASM   12-16-2020  8:50:06         PAGE  2


LOC  OBJECT CODE     LINE SOURCE TEXT
  VALUE

0021   300C           00045         movlw b'00001100'
0022   2839           00046         goto Salida
0023                  00047 Configuracion5
0023   303F           00048         movlw b'00111111'
0024   2839           00049         goto Salida
0025                  00050 Configuracion6
0025   303F           00051         movlw b'00111111'
0026   2839           00052         goto Salida
0027                  00053 Configuracion7
0027   303F           00054         movlw b'00111111'
0028   2839           00055         goto Salida
0029                  00056 Configuracion8
0029   3030           00057         movlw b'00110000'
002A   2839           00058         goto Salida
002B                  00059 Configuracion9
002B   303F           00060         movlw b'00111111'
002C   2839           00061         goto Salida
002D                  00062 Configuracion10
002D   303F           00063         movlw b'00111111'
002E   2839           00064         goto Salida
002F                  00065 Configuracion11
002F   303F           00066         movlw b'00111111'
0030   2839           00067         goto Salida
0031                  00068 Configuracion12
0031   303F           00069         movlw b'00111111'
0032   2839           00070         goto Salida
0033                  00071 Configuracion13
0033   303F           00072         movlw b'00111111'
0034   2839           00073         goto Salida
0035                  00074 Configuracion14
0035   303F           00075         movlw b'00111111'
0036   2839           00076         goto Salida
0037                  00077 Configuracion15
0037   303F           00078         movlw b'00111111'
0038   2839           00079         goto Salida
0039                  00080 Salida
0039   0086           00081         movwf PORTB
003A   2806           00082         goto Principal
                      00083         END
MPASM  5.48                         COVID.ASM   12-16-2020  8:50:06         PAGE  3


SYMBOL TABLE
  LABEL                             VALUE 

C                                 00000000
Configuracion0                    00000019
Configuracion1                    0000001B
Configuracion10                   0000002D
Configuracion11                   0000002F
Configuracion12                   00000031
Configuracion13                   00000033
Configuracion14                   00000035
Configuracion15                   00000037
Configuracion2                    0000001D
Configuracion3                    0000001F
Configuracion4                    00000021
Configuracion5                    00000023
Configuracion6                    00000025
Configuracion7                    00000027
Configuracion8                    00000029
Configuracion9                    0000002B
DC                                00000001
EEADR                             00000009
EECON1                            00000088
EECON2                            00000089
EEDATA                            00000008
EEIE                              00000006
EEIF                              00000004
F                                 00000001
FSR                               00000004
GIE                               00000007
INDF                              00000000
INTCON                            0000000B
INTE                              00000004
INTEDG                            00000006
INTF                              00000001
IRP                               00000007
Inicio                            00000000
NOT_PD                            00000003
NOT_RBPU                          00000007
NOT_TO                            00000004
OPTION_REG                        00000081
PCL                               00000002
PCLATH                            0000000A
PORTA                             00000005
PORTB                             00000006
PS0                               00000000
PS1                               00000001
PS2                               00000002
PSA                               00000003
Principal                         00000006
RA0                               00000000
RA1                               00000001
RA2                               00000002
RA3                               00000003
RA4                               00000004
RB0                               00000000
MPASM  5.48                         COVID.ASM   12-16-2020  8:50:06         PAGE  4


SYMBOL TABLE
  LABEL                             VALUE 

RB1                               00000001
RB2                               00000002
RB3                               00000003
RB4                               00000004
RB5                               00000005
RB6                               00000006
RB7                               00000007
RBIE                              00000003
RBIF                              00000000
RD                                00000000
RP0                               00000005
RP1                               00000006
STATUS                            00000003
Salida                            00000039
T0CS                              00000005
T0IE                              00000005
T0IF                              00000002
T0SE                              00000004
TMR0                              00000001
TMR0IE                            00000005
TMR0IF                            00000002
TRISA                             00000085
TRISA0                            00000000
TRISA1                            00000001
TRISA2                            00000002
TRISA3                            00000003
TRISA4                            00000004
TRISB                             00000086
TRISB0                            00000000
TRISB1                            00000001
TRISB2                            00000002
TRISB3                            00000003
TRISB4                            00000004
TRISB5                            00000005
TRISB6                            00000006
TRISB7                            00000007
W                                 00000000
WR                                00000001
WREN                              00000002
WRERR                             00000003
Z                                 00000002
_CONFIG                           00002007
_CP_OFF                           00003FFF
_CP_ON                            0000000F
_DEVID1                           00002006
_FOSC_EXTRC                       00003FFF
_FOSC_HS                          00003FFE
_FOSC_LP                          00003FFC
_FOSC_XT                          00003FFD
_HS_OSC                           00003FFE
_IDLOC0                           00002000
_IDLOC1                           00002001
_IDLOC2                           00002002
MPASM  5.48                         COVID.ASM   12-16-2020  8:50:06         PAGE  5


SYMBOL TABLE
  LABEL                             VALUE 

_IDLOC3                           00002003
_LP_OSC                           00003FFC
_PWRTE_OFF                        00003FFF
_PWRTE_ON                         00003FF7
_RC_OSC                           00003FFF
_WDTE_OFF                         00003FFB
_WDTE_ON                          00003FFF
_WDT_OFF                          00003FFB
_WDT_ON                           00003FFF
_XT_OSC                           00003FFD
__16F84A                          00000001


MEMORY USAGE MAP ('X' = Used,  '-' = Unused)

0000 : XXXXXXXXXXXXXXXX XXXXXXXXXXXXXXXX XXXXXXXXXXXXXXXX XXXXXXXXXXX-----

All other memory blocks unused.

Program Memory Words Used:    59
Program Memory Words Free:   965


Errors   :     0
Warnings :     0 reported,     0 suppressed
Messages :     0 reported,     0 suppressed

