MPASM  5.48                         COVID.ASM   1-7-2021  20:59:49         PAGE  1


LOC  OBJECT CODE     LINE SOURCE TEXT
  VALUE

                      00001         LIST P = 16F84A
                      00002         INCLUDE<P16F84A.INC>            ;Establece el PIC a usar
                      00001         LIST
                      00002 
                      00003 ;==========================================================================
                      00004 ;  MPASM PIC16F84A processor include
                      00005 ; 
                      00006 ;  (c) Copyright 1999-2012 Microchip Technology, All rights reserved
                      00007 ;==========================================================================
                      00008 
                      00208         LIST
                      00003 
0000                  00004         ORG 0
0000                  00005 Inicio
0000   0186           00006         clrf PORTB                                      ;Limpia el PORTB
0001   1683           00007         bsf STATUS,RP0                          ;Establece el PORTB como salida
0002   0186           00008         clrf PORTB
0003   300F           00009         movlw b'00001111'                       ;Establece el numero de entradas del PORTA 
0004   0085           00010         movwf PORTA                                     ;Manda esa configuración al PORTA
0005   1283           00011         bcf STATUS,RP0                          ;Establece el PORTA como entrada
0006                  00012 Principal
0006   0805           00013         movf PORTA,W                            ;Mueve los datos al PORTA
0007   390F           00014         andlw b'00001111';
0008   200B           00015         call PrenderLed
0009   0086           00016         movwf PORTB                                                     ;Muestra en el PORTB los datos d
                            e salida
000A   2806           00017         goto Principal
                      00018 
                      00019 ;Subrutina
000B                  00020 PrenderLed
000B   0782           00021         addwf PCL,F
000C                  00022 Tabla
000C   3401           00023         retlw b'00000001'
000D   3403           00024         retlw b'00000011'
000E   3404           00025         retlw b'00000100'
000F   343F           00026         retlw b'00111111'
0010   340C           00027         retlw b'00001100'
0011   343F           00028         retlw b'00111111'
0012   343F           00029         retlw b'00111111'
0013   343F           00030         retlw b'00111111'
0014   3430           00031         retlw b'00110000'
0015   343F           00032         retlw b'00111111'
0016   343F           00033         retlw b'00111111'
0017   343F           00034         retlw b'00111111'
0018   343F           00035         retlw b'00111111'
0019   343F           00036         retlw b'00111111'
001A   343F           00037         retlw b'00111111'
001B   343F           00038         retlw b'00111111'
                      00039 
                      00040         END
MPASM  5.48                         COVID.ASM   1-7-2021  20:59:49         PAGE  2


SYMBOL TABLE
  LABEL                             VALUE 

C                                 00000000
DC                                00000001
EEADR                             00000009
EECON1                            00000088
EECON2                            00000089
EEDATA                            00000008
EEIE                              00000006
EEIF                              00000004
F                                 00000001
FSR                               00000004
GIE                               00000007
INDF                              00000000
INTCON                            0000000B
INTE                              00000004
INTEDG                            00000006
INTF                              00000001
IRP                               00000007
Inicio                            00000000
NOT_PD                            00000003
NOT_RBPU                          00000007
NOT_TO                            00000004
OPTION_REG                        00000081
PCL                               00000002
PCLATH                            0000000A
PORTA                             00000005
PORTB                             00000006
PS0                               00000000
PS1                               00000001
PS2                               00000002
PSA                               00000003
PrenderLed                        0000000B
Principal                         00000006
RA0                               00000000
RA1                               00000001
RA2                               00000002
RA3                               00000003
RA4                               00000004
RB0                               00000000
RB1                               00000001
RB2                               00000002
RB3                               00000003
RB4                               00000004
RB5                               00000005
RB6                               00000006
RB7                               00000007
RBIE                              00000003
RBIF                              00000000
RD                                00000000
RP0                               00000005
RP1                               00000006
STATUS                            00000003
T0CS                              00000005
T0IE                              00000005
MPASM  5.48                         COVID.ASM   1-7-2021  20:59:49         PAGE  3


SYMBOL TABLE
  LABEL                             VALUE 

T0IF                              00000002
T0SE                              00000004
TMR0                              00000001
TMR0IE                            00000005
TMR0IF                            00000002
TRISA                             00000085
TRISA0                            00000000
TRISA1                            00000001
TRISA2                            00000002
TRISA3                            00000003
TRISA4                            00000004
TRISB                             00000086
TRISB0                            00000000
TRISB1                            00000001
TRISB2                            00000002
TRISB3                            00000003
TRISB4                            00000004
TRISB5                            00000005
TRISB6                            00000006
TRISB7                            00000007
Tabla                             0000000C
W                                 00000000
WR                                00000001
WREN                              00000002
WRERR                             00000003
Z                                 00000002
_CONFIG                           00002007
_CP_OFF                           00003FFF
_CP_ON                            0000000F
_DEVID1                           00002006
_FOSC_EXTRC                       00003FFF
_FOSC_HS                          00003FFE
_FOSC_LP                          00003FFC
_FOSC_XT                          00003FFD
_HS_OSC                           00003FFE
_IDLOC0                           00002000
_IDLOC1                           00002001
_IDLOC2                           00002002
_IDLOC3                           00002003
_LP_OSC                           00003FFC
_PWRTE_OFF                        00003FFF
_PWRTE_ON                         00003FF7
_RC_OSC                           00003FFF
_WDTE_OFF                         00003FFB
_WDTE_ON                          00003FFF
_WDT_OFF                          00003FFB
_WDT_ON                           00003FFF
_XT_OSC                           00003FFD
__16F84A                          00000001
MPASM  5.48                         COVID.ASM   1-7-2021  20:59:49         PAGE  4


MEMORY USAGE MAP ('X' = Used,  '-' = Unused)


0000 : XXXXXXXXXXXXXXXX XXXXXXXXXXXX---- ---------------- ----------------

All other memory blocks unused.

Program Memory Words Used:    28
Program Memory Words Free:   996


Errors   :     0
Warnings :     0 reported,     0 suppressed
Messages :     0 reported,     0 suppressed

