MPASM  5.48                           BCD.ASM   12-4-2020  8:35:04         PAGE  1


LOC  OBJECT CODE     LINE SOURCE TEXT
  VALUE

Warning[205]: Found directive in column 1. (LIST)
                      00001 LIST P = 16F84A
Warning[205]: Found directive in column 1. (INCLUDE)
                      00002 INCLUDE <P16F84A.INC>
                      00001         LIST
                      00002 
                      00003 ;==========================================================================
                      00004 ;  MPASM PIC16F84A processor include
                      00005 ; 
                      00006 ;  (c) Copyright 1999-2012 Microchip Technology, All rights reserved
                      00007 ;==========================================================================
                      00008 
                      00208         LIST
  0000007C            00003 NUMERO EQU d'124'
                      00004         
                      00005         CBLOCK 0x0C
  0000000C            00006         Centenas
  0000000D            00007         Decenas
  0000000E            00008         Unidades
                      00009         ENDC
                      00010 
0000                  00011         ORG 0
                      00012 
0000                  00013 Inicio
0000   1683           00014         bsf STATUS,RP0
0001   0186           00015         clrf PORTB
0002   1283           00016         bcf STATUS,RP0
0003                  00017 Principal
0003   018C           00018         clrf Centenas
0004   018D           00019         clrf Decenas
0005   307C           00020         movlw NUMERO
0006   008E           00021         movwf Unidades
0007                  00022 Resta_Unidades
0007   300A           00023         movlw .10
0008   020E           00024         subwf Unidades,W
0009   1C03           00025         btfss STATUS,C
000A   2814           00026         goto Salida
000B                  00027 Incrementar_Decenas
000B   008E           00028         movwf Unidades
000C   0A8D           00029         incf Decenas,F
000D   300A           00030         movlw .10
000E   020D           00031         subwf Decenas,W
000F   1C03           00032         btfss STATUS,C
0010   2807           00033         goto Resta_Unidades
0011                  00034 Incrementar_Centenas
0011   018D           00035         clrf Decenas
0012   0A8C           00036         incf Centenas,F
0013   2807           00037         goto Resta_Unidades
0014                  00038 Salida
0014   0E0D           00039         swapf   Decenas,W
0015   070E           00040         addwf   Unidades,W
0016   0086           00041         movwf   PORTB
0017   0063           00042         sleep
MPASM  5.48                           BCD.ASM   12-4-2020  8:35:04         PAGE  2


LOC  OBJECT CODE     LINE SOURCE TEXT
  VALUE

                      00043 
                      00044         END
MPASM  5.48                           BCD.ASM   12-4-2020  8:35:04         PAGE  3


SYMBOL TABLE
  LABEL                             VALUE 

C                                 00000000
Centenas                          0000000C
DC                                00000001
Decenas                           0000000D
EEADR                             00000009
EECON1                            00000088
EECON2                            00000089
EEDATA                            00000008
EEIE                              00000006
EEIF                              00000004
F                                 00000001
FSR                               00000004
GIE                               00000007
INDF                              00000000
INTCON                            0000000B
INTE                              00000004
INTEDG                            00000006
INTF                              00000001
IRP                               00000007
Incrementar_Centenas              00000011
Incrementar_Decenas               0000000B
Inicio                            00000000
NOT_PD                            00000003
NOT_RBPU                          00000007
NOT_TO                            00000004
NUMERO                            0000007C
OPTION_REG                        00000081
PCL                               00000002
PCLATH                            0000000A
PORTA                             00000005
PORTB                             00000006
PS0                               00000000
PS1                               00000001
PS2                               00000002
PSA                               00000003
Principal                         00000003
RA0                               00000000
RA1                               00000001
RA2                               00000002
RA3                               00000003
RA4                               00000004
RB0                               00000000
RB1                               00000001
RB2                               00000002
RB3                               00000003
RB4                               00000004
RB5                               00000005
RB6                               00000006
RB7                               00000007
RBIE                              00000003
RBIF                              00000000
RD                                00000000
RP0                               00000005
MPASM  5.48                           BCD.ASM   12-4-2020  8:35:04         PAGE  4


SYMBOL TABLE
  LABEL                             VALUE 

RP1                               00000006
Resta_Unidades                    00000007
STATUS                            00000003
Salida                            00000014
T0CS                              00000005
T0IE                              00000005
T0IF                              00000002
T0SE                              00000004
TMR0                              00000001
TMR0IE                            00000005
TMR0IF                            00000002
TRISA                             00000085
TRISA0                            00000000
TRISA1                            00000001
TRISA2                            00000002
TRISA3                            00000003
TRISA4                            00000004
TRISB                             00000086
TRISB0                            00000000
TRISB1                            00000001
TRISB2                            00000002
TRISB3                            00000003
TRISB4                            00000004
TRISB5                            00000005
TRISB6                            00000006
TRISB7                            00000007
Unidades                          0000000E
W                                 00000000
WR                                00000001
WREN                              00000002
WRERR                             00000003
Z                                 00000002
_CONFIG                           00002007
_CP_OFF                           00003FFF
_CP_ON                            0000000F
_DEVID1                           00002006
_FOSC_EXTRC                       00003FFF
_FOSC_HS                          00003FFE
_FOSC_LP                          00003FFC
_FOSC_XT                          00003FFD
_HS_OSC                           00003FFE
_IDLOC0                           00002000
_IDLOC1                           00002001
_IDLOC2                           00002002
_IDLOC3                           00002003
_LP_OSC                           00003FFC
_PWRTE_OFF                        00003FFF
_PWRTE_ON                         00003FF7
_RC_OSC                           00003FFF
_WDTE_OFF                         00003FFB
_WDTE_ON                          00003FFF
_WDT_OFF                          00003FFB
_WDT_ON                           00003FFF
MPASM  5.48                           BCD.ASM   12-4-2020  8:35:04         PAGE  5


SYMBOL TABLE
  LABEL                             VALUE 

_XT_OSC                           00003FFD
__16F84A                          00000001


MEMORY USAGE MAP ('X' = Used,  '-' = Unused)

0000 : XXXXXXXXXXXXXXXX XXXXXXXX-------- ---------------- ----------------

All other memory blocks unused.

Program Memory Words Used:    24
Program Memory Words Free:  1000


Errors   :     0
Warnings :     2 reported,     0 suppressed
Messages :     0 reported,     0 suppressed

