:020000040000FA
:10000000831686018312061086142120061486109A
:100010002120032800000000000000000000000074
:1000200008000000A4301D28000040301D281F30AB
:100030001D2800000E301D2805308D008D0B1E2858
:100040000800C8303028643030283230302814306E
:1000500030280A303028053030280230302801306E
:100060008E00F9308D0000008D0B33288E0B312867
:100070000800C83044286430442832304428143002
:1000800044280A30442805308F0064308E00F9304F
:100090008D0000008D0B49288E0B47288F0B4528BB
:0200A000080056
:00000001FF
