:020000040000FA
:1000000083168601831206148610061149200610F5
:100010008614061149200610861006154920061080
:10002000861006154920032800000000000000008B
:100030000000000008000000A43027280000403025
:1000400027281F30272800000E30272805308D0074
:100050008D0B28280800C8303A2864303A283230FE
:100060003A2814303A280A303A2805303A28023023
:100070003A2801308E00F9308D0000008D0B3D28AC
:100080008E0B3B280800C8304E2864304E28323092
:100090004E2814304E280A304E2805308F00643028
:1000A0008E00F9308D0000008D0B53288E0B5128E7
:0600B0008F0B4F28080031
:00000001FF
