:020000040000FA
:1000000083168601073085008312043005190C2001
:100010008600052804308600013086004720023023
:1000200086004720000000000000000000000000E3
:1000300008000000A43025280000403025281F308B
:10004000252800000E30252805308C008C0B262832
:100050000800C83038286430382832303828143046
:1000600038280A303828053038280230382801303E
:100070008D00F9308C0000008C0B3B288D0B39284B
:100080000800C8304C2864304C2832304C281430DA
:100090004C280A304C2805308E0064308D00F93031
:1000A0008C0000008C0B51288D0B4F288E0B4D2897
:0200B000080046
:00000001FF
