MPASM  5.48                    ABECEDARIO.ASM   1-8-2021  8:07:16         PAGE  1


LOC  OBJECT CODE     LINE SOURCE TEXT
  VALUE

                      00001         LIST P = 16F84A
                      00002         INCLUDE<P16F84A.INC>            ;Establece el PIC a usar
                      00001         LIST
                      00002 
                      00003 ;==========================================================================
                      00004 ;  MPASM PIC16F84A processor include
                      00005 ; 
                      00006 ;  (c) Copyright 1999-2012 Microchip Technology, All rights reserved
                      00007 ;==========================================================================
                      00008 
                      00208         LIST
                      00003 
0000                  00004         ORG 0
0000                  00005 Inicio
0000   0186           00006         clrf PORTB                                      ;Limpia el PORTB
0001   1683           00007         bsf STATUS,RP0                          ;Establece el PORTB como salida
0002   0186           00008         clrf PORTB
0003   300F           00009         movlw b'00001111'                       ;Establece el numero de entradas del PORTA 
0004   0085           00010         movwf PORTA                                     ;Manda esa configuración al PORTA
0005   1283           00011         bcf STATUS,RP0                          ;Establece el PORTA como entrada
0006                  00012 Principal
0006   0805           00013         movf PORTA,W                            ;Mueve los datos al PORTA                       
0007   200A           00014         call PrenderLed
0008   0086           00015         movwf PORTB
0009   2806           00016         goto Principal
                      00017 
                      00018 ;Subrutina
000A                  00019 PrenderLed
000A   0782           00020         addwf PCL,F
000B                  00021 InicioTabla
000B   3477 347C 3439 00022         DT 77h,7Ch,39h,5Eh,79h,71h,6Fh,76h,19h,1Eh,7Ah,38h,37h,54h,3Fh
       345E 3479 3471 
       346F 3476 3419 
       341E 347A 3438 
       3437 3454 343F 
001A   3473 3467 3450 00023         DT 73h,67h,50h,60h,78h,1Ch,3Eh,1Dh,70h,6Eh,49h
       3460 3478 341C 
       343E 341D 3470 
       346E 3449 
0025                  00024 FinTabla
                      00025         
                      00026         END
MPASM  5.48                    ABECEDARIO.ASM   1-8-2021  8:07:16         PAGE  2


SYMBOL TABLE
  LABEL                             VALUE 

C                                 00000000
DC                                00000001
EEADR                             00000009
EECON1                            00000088
EECON2                            00000089
EEDATA                            00000008
EEIE                              00000006
EEIF                              00000004
F                                 00000001
FSR                               00000004
FinTabla                          00000025
GIE                               00000007
INDF                              00000000
INTCON                            0000000B
INTE                              00000004
INTEDG                            00000006
INTF                              00000001
IRP                               00000007
Inicio                            00000000
InicioTabla                       0000000B
NOT_PD                            00000003
NOT_RBPU                          00000007
NOT_TO                            00000004
OPTION_REG                        00000081
PCL                               00000002
PCLATH                            0000000A
PORTA                             00000005
PORTB                             00000006
PS0                               00000000
PS1                               00000001
PS2                               00000002
PSA                               00000003
PrenderLed                        0000000A
Principal                         00000006
RA0                               00000000
RA1                               00000001
RA2                               00000002
RA3                               00000003
RA4                               00000004
RB0                               00000000
RB1                               00000001
RB2                               00000002
RB3                               00000003
RB4                               00000004
RB5                               00000005
RB6                               00000006
RB7                               00000007
RBIE                              00000003
RBIF                              00000000
RD                                00000000
RP0                               00000005
RP1                               00000006
STATUS                            00000003
MPASM  5.48                    ABECEDARIO.ASM   1-8-2021  8:07:16         PAGE  3


SYMBOL TABLE
  LABEL                             VALUE 

T0CS                              00000005
T0IE                              00000005
T0IF                              00000002
T0SE                              00000004
TMR0                              00000001
TMR0IE                            00000005
TMR0IF                            00000002
TRISA                             00000085
TRISA0                            00000000
TRISA1                            00000001
TRISA2                            00000002
TRISA3                            00000003
TRISA4                            00000004
TRISB                             00000086
TRISB0                            00000000
TRISB1                            00000001
TRISB2                            00000002
TRISB3                            00000003
TRISB4                            00000004
TRISB5                            00000005
TRISB6                            00000006
TRISB7                            00000007
W                                 00000000
WR                                00000001
WREN                              00000002
WRERR                             00000003
Z                                 00000002
_CONFIG                           00002007
_CP_OFF                           00003FFF
_CP_ON                            0000000F
_DEVID1                           00002006
_FOSC_EXTRC                       00003FFF
_FOSC_HS                          00003FFE
_FOSC_LP                          00003FFC
_FOSC_XT                          00003FFD
_HS_OSC                           00003FFE
_IDLOC0                           00002000
_IDLOC1                           00002001
_IDLOC2                           00002002
_IDLOC3                           00002003
_LP_OSC                           00003FFC
_PWRTE_OFF                        00003FFF
_PWRTE_ON                         00003FF7
_RC_OSC                           00003FFF
_WDTE_OFF                         00003FFB
_WDTE_ON                          00003FFF
_WDT_OFF                          00003FFB
_WDT_ON                           00003FFF
_XT_OSC                           00003FFD
__16F84A                          00000001
MPASM  5.48                    ABECEDARIO.ASM   1-8-2021  8:07:16         PAGE  4


MEMORY USAGE MAP ('X' = Used,  '-' = Unused)


0000 : XXXXXXXXXXXXXXXX XXXXXXXXXXXXXXXX XXXXX----------- ----------------

All other memory blocks unused.

Program Memory Words Used:    37
Program Memory Words Free:   987


Errors   :     0
Warnings :     0 reported,     0 suppressed
Messages :     0 reported,     0 suppressed

