:020000040000FA
:1000000083168601831250300920860003280F3999
:10001000303E8C00203C031900340C080319553481
:100020000C08031963340C085A3C031C80342B3031
:100030000C02031C8034820746340434403480347C
:1000400000343F3406345B344F3466346D347D34D1
:1000500007347F3467344134883400344834003402
:100060000034003477347C3439345E34793471347C
:100070006F34763419341E347A3438343734543487
:100080003F347334673450346D3478341C343E3428
:080090001D3470346E34493454
:00000001FF
